{"abi":[{"type":"constructor","inputs":[{"name":"gateway_","type":"address","internalType":"address"}],"stateMutability":"nonpayable"},{"type":"function","name":"execute","inputs":[{"name":"commandId","type":"bytes32","internalType":"bytes32"},{"name":"sourceChain","type":"string","internalType":"string"},{"name":"sourceAddress","type":"string","internalType":"string"},{"name":"payload","type":"bytes","internalType":"bytes"}],"outputs":[],"stateMutability":"nonpayable"},{"type":"function","name":"gateway","inputs":[],"outputs":[{"name":"","type":"address","internalType":"contract IAxelarGateway"}],"stateMutability":"view"},{"type":"error","name":"InvalidAddress","inputs":[]},{"type":"error","name":"NotApprovedByGateway","inputs":[]}],"bytecode":{"object":"0x60a060405234801561001057600080fd5b506040516103d03803806103d083398101604081905261002f91610067565b6001600160a01b0381166100565760405163e6c4247b60e01b815260040160405180910390fd5b6001600160a01b0316608052610097565b60006020828403121561007957600080fd5b81516001600160a01b038116811461009057600080fd5b9392505050565b6080516103196100b7600039600081816040015260aa01526103196000f3fe608060405234801561001057600080fd5b50600436106100365760003560e01c8063116191b61461003b578063491606581461007e575b600080fd5b6100627f000000000000000000000000000000000000000000000000000000000000000081565b6040516001600160a01b03909116815260200160405180910390f35b61009161008c36600461019d565b610093565b005b604051630bf93d6560e31b81526001600160a01b037f00000000000000000000000000000000000000000000000000000000000000001690635fc9eb28906100eb908a908a908a908a908a908a908a9060040161026a565b6020604051808303816000875af115801561010a573d6000803e3d6000fd5b505050506040513d601f19601f8201168201806040525081019061012e91906102ba565b61014b57604051631403112d60e21b815260040160405180910390fd5b50505050505050565b60008083601f84011261016657600080fd5b50813567ffffffffffffffff81111561017e57600080fd5b60208301915083602082850101111561019657600080fd5b9250929050565b60008060008060008060006080888a0312156101b857600080fd5b87359650602088013567ffffffffffffffff808211156101d757600080fd5b6101e38b838c01610154565b909850965060408a01359150808211156101fc57600080fd5b6102088b838c01610154565b909650945060608a013591508082111561022157600080fd5b5061022e8a828b01610154565b989b979a50959850939692959293505050565b81835281816020850137506000828201602090810191909152601f909101601f19169091010190565b87815260806020820152600061028460808301888a610241565b8281036040840152610297818789610241565b905082810360608401526102ac818587610241565b9a9950505050505050505050565b6000602082840312156102cc57600080fd5b815180151581146102dc57600080fd5b939250505056fea264697066735822122011c298f008be875586eeaec8488a7967625ea391a232e3284ddaf577865b061b64736f6c63430008170033","linkReferences":{}},"methodIdentifiers":{"execute(bytes32,string,string,bytes)":"49160658","gateway()":"116191b6"},"id":20}