{"abi":[{"type":"constructor","inputs":[{"name":"gateway_","type":"address","internalType":"address"}],"stateMutability":"nonpayable"},{"type":"function","name":"execute","inputs":[{"name":"commandId","type":"bytes32","internalType":"bytes32"},{"name":"sourceChain","type":"string","internalType":"string"},{"name":"sourceAddress","type":"string","internalType":"string"},{"name":"payload","type":"bytes","internalType":"bytes"}],"outputs":[],"stateMutability":"nonpayable"},{"type":"function","name":"gateway","inputs":[],"outputs":[{"name":"","type":"address","internalType":"contract IAxelarGateway"}],"stateMutability":"view"},{"type":"function","name":"message","inputs":[],"outputs":[{"name":"","type":"string","internalType":"string"}],"stateMutability":"view"},{"type":"function","name":"sourceAddress","inputs":[],"outputs":[{"name":"","type":"string","internalType":"string"}],"stateMutability":"view"},{"type":"function","name":"sourceChain","inputs":[],"outputs":[{"name":"","type":"string","internalType":"string"}],"stateMutability":"view"},{"type":"function","name":"tokenAmount","inputs":[],"outputs":[{"name":"","type":"uint256","internalType":"uint256"}],"stateMutability":"view"},{"type":"function","name":"tokenDenom","inputs":[],"outputs":[{"name":"","type":"string","internalType":"string"}],"stateMutability":"view"},{"type":"event","name":"Executed","inputs":[{"name":"_sourceChain","type":"string","indexed":false,"internalType":"string"},{"name":"_sourceAddress","type":"string","indexed":false,"internalType":"string"},{"name":"_message","type":"string","indexed":false,"internalType":"string"},{"name":"_tokenSymbol","type":"string","indexed":false,"internalType":"string"},{"name":"_tokenAmount","type":"uint256","indexed":false,"internalType":"uint256"}],"anonymous":false},{"type":"error","name":"InvalidAddress","inputs":[]},{"type":"error","name":"NotApprovedByGateway","inputs":[]}],"bytecode":{"object":"0x60a060405234801561001057600080fd5b50604051610b86380380610b8683398101604081905261002f91610069565b806001600160a01b0381166100575760405163e6c4247b60e01b815260040160405180910390fd5b6001600160a01b031660805250610099565b60006020828403121561007b57600080fd5b81516001600160a01b038116811461009257600080fd5b9392505050565b608051610ac56100c1600039600081816087015281816101c401526103300152610ac56000f3fe608060405234801561001057600080fd5b506004361061007d5760003560e01c8063b0fa84441161005b578063b0fa8444146100f0578063e21f37ce146100f8578063eec7faa114610100578063f307c5091461011757600080fd5b8063116191b6146100825780631c6ffa46146100c657806349160658146100db575b600080fd5b6100a97f000000000000000000000000000000000000000000000000000000000000000081565b6040516001600160a01b0390911681526020015b60405180910390f35b6100ce61011f565b6040516100bd9190610435565b6100ee6100e9366004610498565b6101ad565b005b6100ce61027c565b6100ce610289565b61010960045481565b6040519081526020016100bd565b6100ce610296565b6000805461012c9061053c565b80601f01602080910402602001604051908101604052809291908181526020018280546101589061053c565b80156101a55780601f1061017a576101008083540402835291602001916101a5565b820191906000526020600020905b81548152906001019060200180831161018857829003601f168201915b505050505081565b604051630bf93d6560e31b81526001600160a01b037f00000000000000000000000000000000000000000000000000000000000000001690635fc9eb2890610205908a908a908a908a908a908a908a9060040161059f565b6020604051808303816000875af1158015610224573d6000803e3d6000fd5b505050506040513d601f19601f8201168201806040525081019061024891906105ef565b61026557604051631403112d60e21b815260040160405180910390fd5b6102738686868686866102a3565b50505050505050565b6001805461012c9061053c565b6002805461012c9061053c565b6003805461012c9061053c565b60606102b1828401846106be565b600482905592508260036102c584826107a7565b50505050808060200190518101906102dd9190610867565b6002906102ea90826107a7565b5060006102f88789836108de565b5060016103068587836108de565b507fef02410bc88d0062fef8f23932b97e4580b53fe2177a4e16c3d35fac352952166000600160027f00000000000000000000000000000000000000000000000000000000000000006001600160a01b031663aacde5c760036040518263ffffffff1660e01b815260040161037b9190610a1c565b600060405180830381865afa158015610398573d6000803e3d6000fd5b505050506040513d6000823e601f3d908101601f191682016040526103c09190810190610867565b6004546040516103d4959493929190610a2f565b60405180910390a150505050505050565b60005b838110156104005781810151838201526020016103e8565b50506000910152565b600081518084526104218160208601602086016103e5565b601f01601f19169290920160200192915050565b6020815260006104486020830184610409565b9392505050565b60008083601f84011261046157600080fd5b50813567ffffffffffffffff81111561047957600080fd5b60208301915083602082850101111561049157600080fd5b9250929050565b60008060008060008060006080888a0312156104b357600080fd5b87359650602088013567ffffffffffffffff808211156104d257600080fd5b6104de8b838c0161044f565b909850965060408a01359150808211156104f757600080fd5b6105038b838c0161044f565b909650945060608a013591508082111561051c57600080fd5b506105298a828b0161044f565b989b979a50959850939692959293505050565b600181811c9082168061055057607f821691505b60208210810361057057634e487b7160e01b600052602260045260246000fd5b50919050565b81835281816020850137506000828201602090810191909152601f909101601f19169091010190565b8781526080602082015260006105b960808301888a610576565b82810360408401526105cc818789610576565b905082810360608401526105e1818587610576565b9a9950505050505050505050565b60006020828403121561060157600080fd5b8151801515811461044857600080fd5b634e487b7160e01b600052604160045260246000fd5b604051601f8201601f1916810167ffffffffffffffff8111828210171561065057610650610611565b604052919050565b600067ffffffffffffffff82111561067257610672610611565b50601f01601f191660200190565b600061069361068e84610658565b610627565b90508281528383830111156106a757600080fd5b828260208301376000602084830101529392505050565b6000806000606084860312156106d357600080fd5b833567ffffffffffffffff808211156106eb57600080fd5b818601915086601f8301126106ff57600080fd5b61070e87833560208501610680565b945060208601359350604086013591508082111561072b57600080fd5b508401601f8101861361073d57600080fd5b61074c86823560208401610680565b9150509250925092565b601f8211156107a2576000816000526020600020601f850160051c8101602086101561077f5750805b601f850160051c820191505b8181101561079e5782815560010161078b565b5050505b505050565b815167ffffffffffffffff8111156107c1576107c1610611565b6107d5816107cf845461053c565b84610756565b602080601f83116001811461080a57600084156107f25750858301515b600019600386901b1c1916600185901b17855561079e565b600085815260208120601f198616915b828110156108395788860151825594840194600190910190840161081a565b50858210156108575787850151600019600388901b60f8161c191681555b5050505050600190811b01905550565b60006020828403121561087957600080fd5b815167ffffffffffffffff81111561089057600080fd5b8201601f810184136108a157600080fd5b80516108af61068e82610658565b8181528560208385010111156108c457600080fd5b6108d58260208301602086016103e5565b95945050505050565b67ffffffffffffffff8311156108f6576108f6610611565b61090a83610904835461053c565b83610756565b6000601f84116001811461093e57600085156109265750838201355b600019600387901b1c1916600186901b178355610998565b600083815260209020601f19861690835b8281101561096f578685013582556020948501946001909201910161094f565b508682101561098c5760001960f88860031b161c19848701351681555b505060018560011b0183555b5050505050565b600081546109ac8161053c565b8085526020600183811680156109c957600181146109e357610a11565b60ff1985168884015283151560051b880183019550610a11565b866000528260002060005b85811015610a095781548a82018601529083019084016109ee565b890184019650505b505050505092915050565b602081526000610448602083018461099f565b60a081526000610a4260a083018861099f565b8281036020840152610a54818861099f565b90508281036040840152610a68818761099f565b90508281036060840152610a7c8186610409565b915050826080830152969550505050505056fea26469706673582212209f3e5b4f411f5c318a346c5f28a59ae70f44e57beb1c896ebaf55cc3765ba47464736f6c63430008170033","linkReferences":{}},"methodIdentifiers":{"execute(bytes32,string,string,bytes)":"49160658","gateway()":"116191b6","message()":"e21f37ce","sourceAddress()":"b0fa8444","sourceChain()":"1c6ffa46","tokenAmount()":"eec7faa1","tokenDenom()":"f307c509"},"id":21}